{
  "contractName": "EthPriceOracle",
  "abi": [
    {
      "inputs": [
        {
          "internalType": "address",
          "name": "_owner",
          "type": "address"
        }
      ],
      "stateMutability": "nonpayable",
      "type": "constructor"
    },
    {
      "anonymous": false,
      "inputs": [
        {
          "indexed": false,
          "internalType": "address",
          "name": "oracleAddress",
          "type": "address"
        }
      ],
      "name": "AddOracleEvent",
      "type": "event"
    },
    {
      "anonymous": false,
      "inputs": [
        {
          "indexed": false,
          "internalType": "address",
          "name": "callerAddress",
          "type": "address"
        },
        {
          "indexed": false,
          "internalType": "uint256",
          "name": "id",
          "type": "uint256"
        }
      ],
      "name": "GetLatestEthPriceEvent",
      "type": "event"
    },
    {
      "anonymous": false,
      "inputs": [
        {
          "indexed": false,
          "internalType": "address",
          "name": "oracleAddress",
          "type": "address"
        }
      ],
      "name": "RemoveOracleEvent",
      "type": "event"
    },
    {
      "anonymous": false,
      "inputs": [
        {
          "indexed": true,
          "internalType": "bytes32",
          "name": "role",
          "type": "bytes32"
        },
        {
          "indexed": true,
          "internalType": "bytes32",
          "name": "previousAdminRole",
          "type": "bytes32"
        },
        {
          "indexed": true,
          "internalType": "bytes32",
          "name": "newAdminRole",
          "type": "bytes32"
        }
      ],
      "name": "RoleAdminChanged",
      "type": "event"
    },
    {
      "anonymous": false,
      "inputs": [
        {
          "indexed": true,
          "internalType": "bytes32",
          "name": "role",
          "type": "bytes32"
        },
        {
          "indexed": true,
          "internalType": "address",
          "name": "account",
          "type": "address"
        },
        {
          "indexed": true,
          "internalType": "address",
          "name": "sender",
          "type": "address"
        }
      ],
      "name": "RoleGranted",
      "type": "event"
    },
    {
      "anonymous": false,
      "inputs": [
        {
          "indexed": true,
          "internalType": "bytes32",
          "name": "role",
          "type": "bytes32"
        },
        {
          "indexed": true,
          "internalType": "address",
          "name": "account",
          "type": "address"
        },
        {
          "indexed": true,
          "internalType": "address",
          "name": "sender",
          "type": "address"
        }
      ],
      "name": "RoleRevoked",
      "type": "event"
    },
    {
      "anonymous": false,
      "inputs": [
        {
          "indexed": false,
          "internalType": "uint256",
          "name": "ethPrice",
          "type": "uint256"
        },
        {
          "indexed": false,
          "internalType": "address",
          "name": "callerAddress",
          "type": "address"
        }
      ],
      "name": "SetLatestEthPriceEvent",
      "type": "event"
    },
    {
      "inputs": [],
      "name": "DEFAULT_ADMIN_ROLE",
      "outputs": [
        {
          "internalType": "bytes32",
          "name": "",
          "type": "bytes32"
        }
      ],
      "stateMutability": "view",
      "type": "function"
    },
    {
      "inputs": [
        {
          "internalType": "bytes32",
          "name": "role",
          "type": "bytes32"
        }
      ],
      "name": "getRoleAdmin",
      "outputs": [
        {
          "internalType": "bytes32",
          "name": "",
          "type": "bytes32"
        }
      ],
      "stateMutability": "view",
      "type": "function"
    },
    {
      "inputs": [
        {
          "internalType": "bytes32",
          "name": "role",
          "type": "bytes32"
        },
        {
          "internalType": "uint256",
          "name": "index",
          "type": "uint256"
        }
      ],
      "name": "getRoleMember",
      "outputs": [
        {
          "internalType": "address",
          "name": "",
          "type": "address"
        }
      ],
      "stateMutability": "view",
      "type": "function"
    },
    {
      "inputs": [
        {
          "internalType": "bytes32",
          "name": "role",
          "type": "bytes32"
        }
      ],
      "name": "getRoleMemberCount",
      "outputs": [
        {
          "internalType": "uint256",
          "name": "",
          "type": "uint256"
        }
      ],
      "stateMutability": "view",
      "type": "function"
    },
    {
      "inputs": [
        {
          "internalType": "bytes32",
          "name": "role",
          "type": "bytes32"
        },
        {
          "internalType": "address",
          "name": "account",
          "type": "address"
        }
      ],
      "name": "grantRole",
      "outputs": [],
      "stateMutability": "nonpayable",
      "type": "function"
    },
    {
      "inputs": [
        {
          "internalType": "bytes32",
          "name": "role",
          "type": "bytes32"
        },
        {
          "internalType": "address",
          "name": "account",
          "type": "address"
        }
      ],
      "name": "hasRole",
      "outputs": [
        {
          "internalType": "bool",
          "name": "",
          "type": "bool"
        }
      ],
      "stateMutability": "view",
      "type": "function"
    },
    {
      "inputs": [
        {
          "internalType": "bytes32",
          "name": "role",
          "type": "bytes32"
        },
        {
          "internalType": "address",
          "name": "account",
          "type": "address"
        }
      ],
      "name": "renounceRole",
      "outputs": [],
      "stateMutability": "nonpayable",
      "type": "function"
    },
    {
      "inputs": [
        {
          "internalType": "uint256",
          "name": "",
          "type": "uint256"
        },
        {
          "internalType": "uint256",
          "name": "",
          "type": "uint256"
        }
      ],
      "name": "requestIdToResponse",
      "outputs": [
        {
          "internalType": "address",
          "name": "oracleAddress",
          "type": "address"
        },
        {
          "internalType": "address",
          "name": "callerAddress",
          "type": "address"
        },
        {
          "internalType": "uint256",
          "name": "ethPrice",
          "type": "uint256"
        }
      ],
      "stateMutability": "view",
      "type": "function"
    },
    {
      "inputs": [
        {
          "internalType": "bytes32",
          "name": "role",
          "type": "bytes32"
        },
        {
          "internalType": "address",
          "name": "account",
          "type": "address"
        }
      ],
      "name": "revokeRole",
      "outputs": [],
      "stateMutability": "nonpayable",
      "type": "function"
    },
    {
      "inputs": [
        {
          "internalType": "address",
          "name": "_oracle",
          "type": "address"
        }
      ],
      "name": "addOracle",
      "outputs": [],
      "stateMutability": "nonpayable",
      "type": "function"
    },
    {
      "inputs": [
        {
          "internalType": "address",
          "name": "_oracle",
          "type": "address"
        }
      ],
      "name": "removeOracle",
      "outputs": [],
      "stateMutability": "nonpayable",
      "type": "function"
    },
    {
      "inputs": [],
      "name": "getLatestEthPrice",
      "outputs": [
        {
          "internalType": "uint256",
          "name": "",
          "type": "uint256"
        }
      ],
      "stateMutability": "nonpayable",
      "type": "function"
    },
    {
      "inputs": [
        {
          "internalType": "uint256",
          "name": "_ethPrice",
          "type": "uint256"
        },
        {
          "internalType": "address",
          "name": "_callerAddress",
          "type": "address"
        },
        {
          "internalType": "uint256",
          "name": "_id",
          "type": "uint256"
        }
      ],
      "name": "setLatestEthPrice",
      "outputs": [],
      "stateMutability": "nonpayable",
      "type": "function"
    }
  ],
  "bytecode": "0x608060405260006001556103e8600255600060035560006004553480156200002657600080fd5b5060405162001cdb38038062001cdb833981810160405260208110156200004c57600080fd5b8101908080519060200190929190505050620000a460405180807f44454641554c545f41444d494e5f524f4c4500000000000000000000000000008152506012019050604051809103902033620000ab60201b60201c565b506200033e565b620000e160008084815260200190815260200160002060020154620000d56200014e60201b60201c565b6200015660201b60201c565b62000138576040517f08c379a000000000000000000000000000000000000000000000000000000000815260040180806020018281038252602f81526020018062001cac602f913960400191505060405180910390fd5b6200014a82826200018e60201b60201c565b5050565b600033905090565b600062000186826000808681526020019081526020016000206000016200023160201b6200131f1790919060201c565b905092915050565b620001bc816000808581526020019081526020016000206000016200026960201b620014361790919060201c565b156200022d57620001d26200014e60201b60201c565b73ffffffffffffffffffffffffffffffffffffffff168173ffffffffffffffffffffffffffffffffffffffff16837f2f8788117e7eff1d82e926ec794901d17c78024a50270940304540a733656f0d60405160405180910390a45b5050565b600062000261836000018373ffffffffffffffffffffffffffffffffffffffff1660001b620002a160201b60201c565b905092915050565b600062000299836000018373ffffffffffffffffffffffffffffffffffffffff1660001b620002c460201b60201c565b905092915050565b600080836001016000848152602001908152602001600020541415905092915050565b6000620002d88383620002a160201b60201c565b6200033357826000018290806001815401808255809150506001900390600052602060002001600090919091909150558260000180549050836001016000848152602001908152602001600020819055506001905062000338565b600090505b92915050565b61195e806200034e6000396000f3fe608060405234801561001057600080fd5b50600436106100cf5760003560e01c806391d148541161008c578063cf642f1f11610066578063cf642f1f146103c0578063d547741f14610418578063df5dd1a514610466578063fdc85fc4146104aa576100cf565b806391d14854146102fa578063a217fddf14610360578063ca15c8731461037e576100cf565b8063248a9ca3146100d45780632f2ff15d1461011657806330c0b9ec1461016457806336568abe146101825780638bbc085a146101d05780639010d07c14610282575b600080fd5b610100600480360360208110156100ea57600080fd5b81019080803590602001909291905050506104ee565b6040518082815260200191505060405180910390f35b6101626004803603604081101561012c57600080fd5b8101908080359060200190929190803573ffffffffffffffffffffffffffffffffffffffff16906020019092919050505061050d565b005b61016c610596565b6040518082815260200191505060405180910390f35b6101ce6004803603604081101561019857600080fd5b8101908080359060200190929190803573ffffffffffffffffffffffffffffffffffffffff1690602001909291905050506106c2565b005b610206600480360360408110156101e657600080fd5b81019080803590602001909291908035906020019092919050505061075b565b604051808473ffffffffffffffffffffffffffffffffffffffff1673ffffffffffffffffffffffffffffffffffffffff1681526020018373ffffffffffffffffffffffffffffffffffffffff1673ffffffffffffffffffffffffffffffffffffffff168152602001828152602001935050505060405180910390f35b6102b86004803603604081101561029857600080fd5b8101908080359060200190929190803590602001909291905050506107df565b604051808273ffffffffffffffffffffffffffffffffffffffff1673ffffffffffffffffffffffffffffffffffffffff16815260200191505060405180910390f35b6103466004803603604081101561031057600080fd5b8101908080359060200190929190803573ffffffffffffffffffffffffffffffffffffffff169060200190929190505050610810565b604051808215151515815260200191505060405180910390f35b610368610841565b6040518082815260200191505060405180910390f35b6103aa6004803603602081101561039457600080fd5b8101908080359060200190929190505050610848565b6040518082815260200191505060405180910390f35b610416600480360360608110156103d657600080fd5b8101908080359060200190929190803573ffffffffffffffffffffffffffffffffffffffff1690602001909291908035906020019092919050505061086e565b005b6104646004803603604081101561042e57600080fd5b8101908080359060200190929190803573ffffffffffffffffffffffffffffffffffffffff169060200190929190505050610ca1565b005b6104a86004803603602081101561047c57600080fd5b81019080803573ffffffffffffffffffffffffffffffffffffffff169060200190929190505050610d2a565b005b6104ec600480360360208110156104c057600080fd5b81019080803573ffffffffffffffffffffffffffffffffffffffff169060200190929190505050610f44565b005b6000806000838152602001908152602001600020600201549050919050565b6105336000808481526020019081526020016000206002015461052e6111d7565b610810565b610588576040517f08c379a000000000000000000000000000000000000000000000000000000000815260040180806020018281038252602f815260200180611874602f913960400191505060405180910390fd5b61059282826111df565b5050565b600060016000815480929190600101919050555060006002544233600154604051602001808481526020018373ffffffffffffffffffffffffffffffffffffffff1673ffffffffffffffffffffffffffffffffffffffff1660601b815260140182815260200193505050506040516020818303038152906040528051906020012060001c8161062157fe5b06905060016005600083815260200190815260200160002060006101000a81548160ff0219169083151502179055507f3d50a0c24e97813f35595d2f1f37dbf421d5e97f37abd4e222853e9b9c82c8d53382604051808373ffffffffffffffffffffffffffffffffffffffff1673ffffffffffffffffffffffffffffffffffffffff1681526020018281526020019250505060405180910390a18091505090565b6106ca6111d7565b73ffffffffffffffffffffffffffffffffffffffff168173ffffffffffffffffffffffffffffffffffffffff161461074d576040517f08c379a000000000000000000000000000000000000000000000000000000000815260040180806020018281038252602f8152602001806118d3602f913960400191505060405180910390fd5b6107578282611272565b5050565b6006602052816000526040600020818154811061077457fe5b9060005260206000209060030201600091509150508060000160009054906101000a900473ffffffffffffffffffffffffffffffffffffffff16908060010160009054906101000a900473ffffffffffffffffffffffffffffffffffffffff16908060020154905083565b60006108088260008086815260200190815260200160002060000161130590919063ffffffff16565b905092915050565b60006108398260008086815260200190815260200160002060000161131f90919063ffffffff16565b905092915050565b6000801b81565b600061086760008084815260200190815260200160002060000161134f565b9050919050565b6108ad60405180807f4f5241434c455f524f4c45000000000000000000000000000000000000000000815250600b019050604051809103902033610810565b61091f576040517f08c379a000000000000000000000000000000000000000000000000000000000815260040180806020018281038252600e8152602001807f4e6f7420616e206f7261636c652100000000000000000000000000000000000081525060200191505060405180910390fd5b6005600082815260200190815260200160002060009054906101000a900460ff16610995576040517f08c379a00000000000000000000000000000000000000000000000000000000081526004018080602001828103825260278152602001806119026027913960400191505060405180910390fd5b61099d61176b565b60405180606001604052803373ffffffffffffffffffffffffffffffffffffffff1681526020018473ffffffffffffffffffffffffffffffffffffffff1681526020018581525090506006600083815260200190815260200160002081908060018154018082558091505060019003906000526020600020906003020160009091909190915060008201518160000160006101000a81548173ffffffffffffffffffffffffffffffffffffffff021916908373ffffffffffffffffffffffffffffffffffffffff16021790555060208201518160010160006101000a81548173ffffffffffffffffffffffffffffffffffffffff021916908373ffffffffffffffffffffffffffffffffffffffff160217905550604082015181600201555050600060066000848152602001908152602001600020805490509050600454811415610c9a57600080905060008090505b6006600086815260200190815260200160002080549050811015610b5c57610b4d600660008781526020019081526020016000208281548110610b2c57fe5b9060005260206000209060030201600201548361136490919063ffffffff16565b91508080600101915050610aed565b50610b7082826113ec90919063ffffffff16565b90506005600085815260200190815260200160002060006101000a81549060ff0219169055600660008581526020019081526020016000206000610bb491906117b8565b60008590508073ffffffffffffffffffffffffffffffffffffffff1663b5d73ba483876040518363ffffffff1660e01b81526004018083815260200182815260200192505050600060405180830381600087803b158015610c1457600080fd5b505af1158015610c28573d6000803e3d6000fd5b505050507f91b860381268a473101de3379abbb70abf7ea6c9d1735cf58b9816479ff3b7278287604051808381526020018273ffffffffffffffffffffffffffffffffffffffff1673ffffffffffffffffffffffffffffffffffffffff1681526020019250505060405180910390a150505b5050505050565b610cc760008084815260200190815260200160002060020154610cc26111d7565b610810565b610d1c576040517f08c379a00000000000000000000000000000000000000000000000000000000081526004018080602001828103825260308152602001806118a36030913960400191505060405180910390fd5b610d268282611272565b5050565b610d6960405180807f4f574e45525f524f4c4500000000000000000000000000000000000000000000815250600a019050604051809103902033610810565b610ddb576040517f08c379a000000000000000000000000000000000000000000000000000000000815260040180806020018281038252600d8152602001807f4e6f7420616e206f776e6572210000000000000000000000000000000000000081525060200191505060405180910390fd5b610e1a60405180807f4f5241434c455f524f4c45000000000000000000000000000000000000000000815250600b019050604051809103902082610810565b15610e8d576040517f08c379a00000000000000000000000000000000000000000000000000000000081526004018080602001828103825260128152602001807f416c726561647920616e206f7261636c6521000000000000000000000000000081525060200191505060405180910390fd5b610ecc60405180807f4f5241434c455f524f4c45000000000000000000000000000000000000000000815250600b01905060405180910390208261050d565b6003600081548092919060010191905055507fed46b7525d27f2470ee188e1d85693a6a8b59537b58701408b2f53588e63d1db81604051808273ffffffffffffffffffffffffffffffffffffffff1673ffffffffffffffffffffffffffffffffffffffff16815260200191505060405180910390a150565b610f8360405180807f4f574e45525f524f4c4500000000000000000000000000000000000000000000815250600a019050604051809103902033610810565b610ff5576040517f08c379a000000000000000000000000000000000000000000000000000000000815260040180806020018281038252600d8152602001807f4e6f7420616e206f776e6572210000000000000000000000000000000000000081525060200191505060405180910390fd5b61103460405180807f4f5241434c455f524f4c45000000000000000000000000000000000000000000815250600b019050604051809103902082610810565b156110a7576040517f08c379a00000000000000000000000000000000000000000000000000000000081526004018080602001828103825260128152602001807f416c726561647920616e206f7261636c6521000000000000000000000000000081525060200191505060405180910390fd5b60016003541161111f576040517f08c379a000000000000000000000000000000000000000000000000000000000815260040180806020018281038252601e8152602001807f446f206e6f742072656d6f766520746865206c617374206f7261636c6521000081525060200191505060405180910390fd5b61115e60405180807f4f5241434c455f524f4c45000000000000000000000000000000000000000000815250600b019050604051809103902082610ca1565b600360008154809291906001900391905055507f8d35b822981364028d4bb40af1edcfd97f4e186c8ccf97bafcc9adc68bd58c6d81604051808273ffffffffffffffffffffffffffffffffffffffff1673ffffffffffffffffffffffffffffffffffffffff16815260200191505060405180910390a150565b600033905090565b6112068160008085815260200190815260200160002060000161143690919063ffffffff16565b1561126e576112136111d7565b73ffffffffffffffffffffffffffffffffffffffff168173ffffffffffffffffffffffffffffffffffffffff16837f2f8788117e7eff1d82e926ec794901d17c78024a50270940304540a733656f0d60405160405180910390a45b5050565b6112998160008085815260200190815260200160002060000161146690919063ffffffff16565b15611301576112a66111d7565b73ffffffffffffffffffffffffffffffffffffffff168173ffffffffffffffffffffffffffffffffffffffff16837ff6391f5c32d9c69d2a47ea670b442974b53935d1edc7fd64eb21e047a839171b60405160405180910390a45b5050565b60006113148360000183611496565b60001c905092915050565b6000611347836000018373ffffffffffffffffffffffffffffffffffffffff1660001b611519565b905092915050565b600061135d8260000161153c565b9050919050565b6000808284019050838110156113e2576040517f08c379a000000000000000000000000000000000000000000000000000000000815260040180806020018281038252601b8152602001807f536166654d6174683a206164646974696f6e206f766572666c6f77000000000081525060200191505060405180910390fd5b8091505092915050565b600061142e83836040518060400160405280601a81526020017f536166654d6174683a206469766973696f6e206279207a65726f00000000000081525061154d565b905092915050565b600061145e836000018373ffffffffffffffffffffffffffffffffffffffff1660001b611613565b905092915050565b600061148e836000018373ffffffffffffffffffffffffffffffffffffffff1660001b611683565b905092915050565b6000818360000180549050116114f7576040517f08c379a00000000000000000000000000000000000000000000000000000000081526004018080602001828103825260228152602001806118526022913960400191505060405180910390fd5b82600001828154811061150657fe5b9060005260206000200154905092915050565b600080836001016000848152602001908152602001600020541415905092915050565b600081600001805490509050919050565b600080831182906115f9576040517f08c379a00000000000000000000000000000000000000000000000000000000081526004018080602001828103825283818151815260200191508051906020019080838360005b838110156115be5780820151818401526020810190506115a3565b50505050905090810190601f1680156115eb5780820380516001836020036101000a031916815260200191505b509250505060405180910390fd5b50600083858161160557fe5b049050809150509392505050565b600061161f8383611519565b61167857826000018290806001815401808255809150506001900390600052602060002001600090919091909150558260000180549050836001016000848152602001908152602001600020819055506001905061167d565b600090505b92915050565b6000808360010160008481526020019081526020016000205490506000811461175f57600060018203905060006001866000018054905003905060008660000182815481106116ce57fe5b90600052602060002001549050808760000184815481106116eb57fe5b906000526020600020018190555060018301876001016000838152602001908152602001600020819055508660000180548061172357fe5b60019003818190600052602060002001600090559055866001016000878152602001908152602001600020600090556001945050505050611765565b60009150505b92915050565b6040518060600160405280600073ffffffffffffffffffffffffffffffffffffffff168152602001600073ffffffffffffffffffffffffffffffffffffffff168152602001600081525090565b50805460008255600302906000526020600020908101906117d991906117dc565b50565b61184e91905b8082111561184a57600080820160006101000a81549073ffffffffffffffffffffffffffffffffffffffff02191690556001820160006101000a81549073ffffffffffffffffffffffffffffffffffffffff02191690556002820160009055506003016117e2565b5090565b9056fe456e756d657261626c655365743a20696e646578206f7574206f6620626f756e6473416363657373436f6e74726f6c3a2073656e646572206d75737420626520616e2061646d696e20746f206772616e74416363657373436f6e74726f6c3a2073656e646572206d75737420626520616e2061646d696e20746f207265766f6b65416363657373436f6e74726f6c3a2063616e206f6e6c792072656e6f756e636520726f6c657320666f722073656c66546869732072657175657374206973206e6f7420696e206d792070656e64696e67206c6973742ea264697066735822122063e48ba0fdd81559ebcd4fe3af1be562c61260aec113857d126d05a4bc3ffd0c64736f6c63430006020033416363657373436f6e74726f6c3a2073656e646572206d75737420626520616e2061646d696e20746f206772616e74",
  "source": "pragma solidity >=0.4.22 <0.8.0;\n\nimport \"@openzeppelin/contracts/access/AccessControl.sol\";\nimport \"@openzeppelin/contracts/math/SafeMath.sol\";\nimport \"./CallerContractInterface.sol\";\n\ncontract EthPriceOracle is AccessControl {\n\n  using SafeMath for uint256;\n  struct Response {\n    address oracleAddress;\n    address callerAddress;\n    uint256 ethPrice;\n  }\n\n  bytes32 private constant OWNER_ROLE = keccak256('OWNER_ROLE');\n  bytes32 private constant ORACLE_ROLE = keccak256('ORACLE_ROLE');\n\n  uint private randNonce = 0;\n  uint private modulus = 1000;\n  uint private numOracles = 0;\n  uint private THRESHOLD = 0;\n  mapping(uint256 => bool) pendingRequests;\n  mapping (uint256 => Response[]) public requestIdToResponse;\n\n  event GetLatestEthPriceEvent(address callerAddress, uint id);\n  event SetLatestEthPriceEvent(uint256 ethPrice, address callerAddress);\n  event AddOracleEvent(address oracleAddress);\n  event RemoveOracleEvent(address oracleAddress);\n\n  constructor (address _owner) public {\n    grantRole(keccak256(\"DEFAULT_ADMIN_ROLE\"), msg.sender);\n  }\n\n  function addOracle (address _oracle) public {\n    require(hasRole(OWNER_ROLE, msg.sender), \"Not an owner!\");\n    require(!hasRole(ORACLE_ROLE, _oracle), \"Already an oracle!\");\n    grantRole(ORACLE_ROLE, _oracle);\n    numOracles++;\n    emit AddOracleEvent(_oracle);\n  }\n\n  function removeOracle (address _oracle) public {\n    require(hasRole(OWNER_ROLE, msg.sender), \"Not an owner!\");\n    require(!hasRole(ORACLE_ROLE, _oracle), \"Already an oracle!\");\n    require(numOracles > 1, \"Do not remove the last oracle!\");\n    revokeRole(ORACLE_ROLE, _oracle);\n    numOracles--;\n    emit RemoveOracleEvent(_oracle);\n  }\n\n\tfunction getLatestEthPrice () public returns(uint256) {\n\t\trandNonce++;\n\t\tuint id = uint(keccak256(abi.encodePacked(now, msg.sender, randNonce))) % modulus;\n\t\tpendingRequests[id] = true;\n    emit GetLatestEthPriceEvent(msg.sender, id);\n    return id;\n  }\n\n\tfunction setLatestEthPrice (uint256 _ethPrice, address _callerAddress, uint256 _id) public {\n    require(hasRole(ORACLE_ROLE, msg.sender), \"Not an oracle!\");\n    require(pendingRequests[_id], \"This request is not in my pending list.\");\n    Response memory resp;\n    resp = Response(msg.sender, _callerAddress, _ethPrice);\n    requestIdToResponse[_id].push(resp);\n    uint numResponses = requestIdToResponse[_id].length;\n    if (numResponses == THRESHOLD) {\n      uint computedEthPrice = 0;\n        for (uint i=0; i < requestIdToResponse[_id].length; i++) {\n        computedEthPrice = computedEthPrice.add(requestIdToResponse[_id][i].ethPrice);\n      }\n      computedEthPrice = computedEthPrice.div(numResponses);\n      delete pendingRequests[_id];\n      delete requestIdToResponse[_id];\n      CallerContractInterface callerContractInstance;\n      callerContractInstance = CallerContractInterface(_callerAddress);\n      callerContractInstance.callback(computedEthPrice, _id);\n      emit SetLatestEthPriceEvent(computedEthPrice, _callerAddress);\n    }\n  }\n}\n",
  "sourcePath": "/Users/merlinegalite/Desktop/Blockchain/Learn/eth-price-oracle/oracle/contracts/EthPriceOracle.sol",
  "compiler": {
    "name": "solc",
    "version": "0.6.2+commit.bacdbe57.Emscripten.clang"
  },
  "schemaVersion": "3.2.4",
  "updatedAt": "2020-11-23T21:23:31.028Z",
  "devdoc": {
    "methods": {
      "getRoleAdmin(bytes32)": {
        "details": "Returns the admin role that controls `role`. See {grantRole} and {revokeRole}.     * To change a role's admin, use {_setRoleAdmin}."
      },
      "getRoleMember(bytes32,uint256)": {
        "details": "Returns one of the accounts that have `role`. `index` must be a value between 0 and {getRoleMemberCount}, non-inclusive.     * Role bearers are not sorted in any particular way, and their ordering may change at any point.     * WARNING: When using {getRoleMember} and {getRoleMemberCount}, make sure you perform all queries on the same block. See the following https://forum.openzeppelin.com/t/iterating-over-elements-on-enumerableset-in-openzeppelin-contracts/2296[forum post] for more information."
      },
      "getRoleMemberCount(bytes32)": {
        "details": "Returns the number of accounts that have `role`. Can be used together with {getRoleMember} to enumerate all bearers of a role."
      },
      "grantRole(bytes32,address)": {
        "details": "Grants `role` to `account`.     * If `account` had not been already granted `role`, emits a {RoleGranted} event.     * Requirements:     * - the caller must have ``role``'s admin role."
      },
      "hasRole(bytes32,address)": {
        "details": "Returns `true` if `account` has been granted `role`."
      },
      "renounceRole(bytes32,address)": {
        "details": "Revokes `role` from the calling account.     * Roles are often managed via {grantRole} and {revokeRole}: this function's purpose is to provide a mechanism for accounts to lose their privileges if they are compromised (such as when a trusted device is misplaced).     * If the calling account had been granted `role`, emits a {RoleRevoked} event.     * Requirements:     * - the caller must be `account`."
      },
      "revokeRole(bytes32,address)": {
        "details": "Revokes `role` from `account`.     * If `account` had been granted `role`, emits a {RoleRevoked} event.     * Requirements:     * - the caller must have ``role``'s admin role."
      }
    }
  },
  "userdoc": {
    "methods": {}
  }
}